:0400000080317728AC
:1000080080312100111C3D282000111C3D281110B1
:10001800E0309700C03096002100A40A0319A50A11
:1000280003302502E83003192402031C2028A40108
:10003800A5012000DA01DA0A200058080319262849
:10004800D8032A28D808031D2A28E10159080319CA
:100058003D28D90B3D286208053A031D3B2822009C
:100068002408AA3A031D3B282000DC01DC0A2000F2
:10007800E2012100911E5A282000911E5A2891124F
:100088006108473E86008701230019088100200087
:100098000330E10AD8006108083A031D5628E10137
:1000A800DB01DB0A093061020318E1012100941E1B
:1000B80009002000941E09009412DC08031D0900A1
:1000C8006208203E8600013087002900110881005F
:1000D80022002008553A031D73282000E20A053043
:1000E8002000D90009008031792847308400003089
:1000F80085002530903110208031A03084000030F8
:10010800850040309031102080312030840001304B
:1001180085001030903110202100A130E000A2307D
:10012800E100A330E200B030E300B130E400003079
:10013800E50020008831032864308A31A22A68301B
:10014800A1287130A1287230A1287430A1287830F4
:10015800A1282508013A92310319702A8031033AFF
:100168000319842F063A0319A0280C3A0319A32867
:10017800183A0319A528303A0319A728603A031931
:10018800A928C03A0319AB28832FA208031D2829E0
:10019800A308031D2829A408031D2829A508031D51
:1001A800282926030319F4282608023A0319F428F3
:1001B8002608043A0319F4282608083A0319F428EB
:1001C8002608103A0319F4282608203A0319F428B7
:1001D8002608403A0319F4282608803A031D2829DE
:1001E800A708031D2829A808031D2829A9080319F9
:1001F8000E2928298130A1288230A1288430A128FD
:100208008830A1289130A1289230A1289430A128C3
:100218009830A1282608013A0319FE28033A031941
:100228000029063A031902290C3A03190429183A35
:1002380003190629303A03190829603A03190A29CB
:10024800C03A03190C29832FA208031D8729A30884
:10025800031D8729A408031D8729A508031D8729CD
:10026800A608031D87292703031956292708023AD8
:10027800031956292708043A031956292708083A62
:10028800031956292708103A031956292708203A2E
:10029800031956292708403A031956292708803A8E
:1002A800031D8729A808031D8729A90803196D2993
:1002B8008729A130A128A230A128A430A128A830DC
:1002C800A128B130A128B230A128B430A128B83073
:1002D800A1282708013A03195D29033A03195F2960
:1002E800063A031961290C3A03196329183A0319C4
:1002F8006529303A03196729603A03196929C03A10
:1003080003196B29832FA208031DE629A308031DDF
:10031800E629A408031DE629A508031DE629A60861
:10032800031DE629A708031DE62928030319B82990
:100338002808023A0319B8292808043A0319B829E1
:100348002808083A0319B8292808103A0319B829BF
:100358002808203A0319B8292808403A0319B82967
:100368002808803A031DE629A9080319CC29E6299B
:10037800C130A128C230A128C430A128C830A12882
:10038800D130A128D230A128D430A128D830A12832
:100398002808013A0319BC29033A0319BE29063A69
:1003A8000319C0290C3A0319C229183A0319C42998
:1003B800303A0319C629603A0319C829C03A031903
:1003C800CA29832FA208031D452AA308031D452A0D
:1003D800A408031D452AA508031D452AA608031DD0
:1003E800452AA708031D452AA808031D452A2903ED
:1003F80003192B2A2908023A03192B2A2908043A37
:1004080003192B2A2908083A03192B2A2908103A14
:1004180003192B2A2908203A03192B2A2908403ABC
:1004280003192B2A2908803A03192B2A452AE13077
:10043800A128E230A128E430A128E830A128F13031
:10044800A128F230A128F430A128F830A1282908E1
:10045800013A03191B2A033A03191D2A063A0319FC
:100468001F2A0C3A0319212A183A0319232A303A69
:100478000319252A603A0319272AC03A0319292A99
:10048800832F221C592AF0308A31A2228031F13080
:100498008A31A222803101308A31A22280319630FD
:1004A800F000F1018A31C72280312000A21C6E2A97
:1004B800F0308A31A2228031F1308A31A222803193
:1004C80002308A31A22280319630F000F1018A315F
:1004D800C72280312000221D832AF0308A31A222CF
:1004E8008031F1308A31A222803104308A31A2224F
:1004F80080319630F000F1018A31C7228031200026
:10050800A21D982AF0308A31A2228031F1308A3136
:10051800A222803108308A31A22280319630F00040
:10052800F1018A31C72280312000221EAD2AF03025
:100538008A31A2228031F1308A31A22280311130F1
:100548008A31A22280319630F000F1018A31C72227
:1005580080312000A21EC22AF0308A31A2228031C6
:10056800F1308A31A222803112308A31A2228031C0
:100578009630F000F1018A31C72280312000221F15
:10058800D72AF0308A31A2228031F1308A31A22272
:10059800803114308A31A22280319630F000F10186
:1005A8008A31C72280312000A21FEC2AF0308A311C
:1005B800A2228031F1308A31A222803118308A316A
:1005C800A22280319630F000F1018A31C7228031B1
:1005D8002000231C012BF0308A31A2228031F13017
:1005E8008A31A222803121308A31A222803196308C
:1005F800F000F1018A31C72280312000A31C162B9C
:10060800F0308A31A2228031F1308A31A222803141
:1006180022308A31A22280319630F000F1018A31ED
:10062800C72280312000231D2B2BF0308A31A222D3
:100638008031F1308A31A222803124308A31A222DD
:1006480080319630F000F1018A31C72280312000D4
:10065800A31D402BF0308A31A2228031F1308A313B
:10066800A222803128308A31A22280319630F000CF
:10067800F1018A31C72280312000231E552BF0302A
:100688008A31A2228031F1308A31A2228031313080
:100698008A31A22280319630F000F1018A31C722D6
:1006A80080312000A31E6A2BF0308A31A2228031CB
:1006B800F1308A31A222803132308A31A22280314F
:1006C8009630F000F1018A31C72280312000231FC3
:1006D8007F2BF0308A31A2228031F1308A31A22278
:1006E800803134308A31A22280319630F000F10115
:1006F8008A31C72280312000A31F942BF0308A3121
:10070800A2228031F1308A31A222803138308A31F8
:10071800A22280319630F000F1018A31C72280315F
:100728002000241CA92BF0308A31A2228031F1301C
:100738008A31A222803141308A31A222803196301A
:10074800F000F1018A31C72280312000A41CBE2BA1
:10075800F0308A31A2228031F1308A31A2228031F0
:1007680042308A31A22280319630F000F1018A317C
:10077800C72280312000241DD32BF0308A31A222D9
:100788008031F1308A31A222803144308A31A2226C
:1007980080319630F000F1018A31C7228031200083
:1007A800A41DE82BF0308A31A2228031F1308A3141
:1007B800A222803148308A31A22280319630F0005E
:1007C800F1018A31C72280312000241EFD2BF03030
:1007D8008A31A2228031F1308A31A222803151300F
:1007E8008A31A22280319630F000F1018A31C72285
:1007F80080312000A41E122CF0308A31A2228031D0
:10080800F1308A31A222803152308A31A2228031DD
:100818009630F000F1018A31C72280312000241F70
:10082800272CF0308A31A2228031F1308A31A2227D
:10083800803154308A31A22280319630F000F101A3
:100848008A31C72280312000A41F3C2CF0308A3125
:10085800A2228031F1308A31A222803158308A3187
:10086800A22280319630F000F1018A31C72280310E
:100878002000251C512CF0308A31A2228031F13021
:100888008A31A222803161308A31A22280319630A9
:10089800F000F1018A31C72280312000A51C662CA6
:1008A800F0308A31A2228031F1308A31A22280319F
:1008B80062308A31A22280319630F000F1018A310B
:1008C800C72280312000251D7B2CF0308A31A222DE
:1008D8008031F1308A31A222803164308A31A222FB
:1008E80080319630F000F1018A31C7228031200032
:1008F800A51D902CF0308A31A2228031F1308A3146
:10090800A222803168308A31A22280319630F000EC
:10091800F1018A31C72280312000251EA52CF03034
:100928008A31A2228031F1308A31A222803171309D
:100938008A31A22280319630F000F1018A31C72233
:1009480080312000A51EBA2CF0308A31A2228031D5
:10095800F1308A31A222803172308A31A22280316C
:100968009630F000F1018A31C72280312000251F1E
:10097800CF2CF0308A31A2228031F1308A31A22284
:10098800803174308A31A22280319630F000F10132
:100998008A31C72280312000A51FE42CF0308A312B
:1009A800A2228031F1308A31A222803178308A3116
:1009B800A22280319630F000F1018A31C7228031BD
:1009C8002000261CF92CF0308A31A2228031F13027
:1009D8008A31A222803181308A31A2228031963038
:1009E800F000F1018A31C72280312000A61C0E2DAB
:1009F800F0308A31A2228031F1308A31A22280314E
:100A080082308A31A22280319630F000F1018A3199
:100A1800C72280312000261D232DF0308A31A222E2
:100A28008031F1308A31A222803184308A31A22289
:100A380080319630F000F1018A31C72280312000E0
:100A4800A61D382DF0308A31A2228031F1308A314A
:100A5800A222803188308A31A22280319630F0007B
:100A6800F1018A31C72280312000261E4D2DF03039
:100A78008A31A2228031F1308A31A222803191302C
:100A88008A31A22280319630F000F1018A31C722E2
:100A980080312000A61E622DF0308A31A2228031DA
:100AA800F1308A31A222803192308A31A2228031FB
:100AB8009630F000F1018A31C72280312000261FCC
:100AC800772DF0308A31A2228031F1308A31A2228A
:100AD800803194308A31A22280319630F000F101C1
:100AE8008A31C72280312000A61F8C2DF0308A3130
:100AF800A2228031F1308A31A222803198308A31A5
:100B0800A22280319630F000F1018A31C72280316B
:100B18002000271CA12DF0308A31A2228031F1302B
:100B28008A31A2228031A1308A31A22280319630C6
:100B3800F000F1018A31C72280312000A71CB62DB0
:100B4800F0308A31A2228031F1308A31A2228031FC
:100B5800A2308A31A22280319630F000F1018A3128
:100B6800C72280312000271DCB2DF0308A31A222E8
:100B78008031F1308A31A2228031A4308A31A22218
:100B880080319630F000F1018A31C722803120008F
:100B9800A71DE02DF0308A31A2228031F1308A3150
:100BA800A2228031A8308A31A22280319630F0000A
:100BB800F1018A31C72280312000271EF52DF0303F
:100BC8008A31A2228031F1308A31A2228031B130BB
:100BD8008A31A22280319630F000F1018A31C72291
:100BE80080312000A71E0A2EF0308A31A2228031DF
:100BF800F1308A31A2228031B2308A31A22280318A
:100C08009630F000F1018A31C72280312000271F79
:100C18001F2EF0308A31A2228031F1308A31A2228F
:100C28008031B4308A31A22280319630F000F1014F
:100C38008A31C72280312000A71F342EF0308A3134
:100C4800A2228031F1308A31A2228031B8308A3133
:100C5800A22280319630F000F1018A31C72280311A
:100C68002000281C492EF0308A31A2228031F13030
:100C78008A31A2228031C1308A31A2228031963055
:100C8800F000F1018A31C72280312000A81C5E2EB5
:100C9800F0308A31A2228031F1308A31A2228031AB
:100CA800C2308A31A22280319630F000F1018A31B7
:100CB800C72280312000281D732EF0308A31A222ED
:100CC8008031F1308A31A2228031C4308A31A222A7
:100CD80080319630F000F1018A31C722803120003E
:100CE800A81D882EF0308A31A2228031F1308A3155
:100CF800A2228031C8308A31A22280319630F00099
:100D0800F1018A31C72280312000281E9D2EF03043
:100D18008A31A2228031F1308A31A2228031D13049
:100D28008A31A22280319630F000F1018A31C7223F
:100D380080312000A81EB22EF0308A31A2228031E4
:100D4800F1308A31A2228031D2308A31A222803118
:100D58009630F000F1018A31C72280312000281F27
:100D6800C72EF0308A31A2228031F1308A31A22296
:100D78008031D4308A31A22280319630F000F101DE
:100D88008A31C72280312000A81FDC2EF0308A313A
:100D9800A2228031F1308A31A2228031D8308A31C2
:100DA800A22280319630F000F1018A31C7228031C9
:100DB8002000291CF12EF0308A31A2228031F13036
:100DC8008A31A2228031E1308A31A22280319630E4
:100DD800F000F1018A31C72280312000A91C062FBA
:100DE800F0308A31A2228031F1308A31A22280315A
:100DF800E2308A31A22280319630F000F1018A3146
:100E0800C72280312000291D1B2FF0308A31A222F1
:100E18008031F1308A31A2228031E4308A31A22235
:100E280080319630F000F1018A31C72280312000EC
:100E3800A91D302FF0308A31A2228031F1308A3159
:100E4800A2228031E8308A31A22280319630F00027
:100E5800F1018A31C72280312000291E452FF03048
:100E68008A31A2228031F1308A31A2228031F130D8
:100E78008A31A22280319630F000F1018A31C722EE
:100E880080312000A91E5A2FF0308A31A2228031E9
:100E9800F1308A31A2228031F2308A31A2228031A7
:100EA8009630F000F1018A31C72280312000291FD5
:100EB8006F2FF0308A31A2228031F1308A31A2229C
:100EC8008031F4308A31A22280319630F000F1016D
:100ED8008A31C72280312000A91F0800F0308A31EA
:100EE800A2228031F1308A31A2228031F8308A3151
:100EF800A22280319630F000F1018A31C722080021
:100F08009231722AF9000330F5001130DD2787315C
:100F1800790803190800FA01FB01FA0A0319FB0A08
:100F280004307B021A3003197A02031C912F033014
:100F3800F50011309731DA2FFC006A30F500F60120
:100F48009631232687310F30F20022309731BA27A5
:100F580087310830F5000930DD2720009731E22776
:100F680087317C082100B6007030B7007B08F0009C
:100F78000430F101F200B830F3018E31AE2687312A
:100F88002100380839063A063B06BC000730200025
:100F9800E7001E30963164268731FD00FD08031DE9
:100FA800DB2F6908083A0319DB2FF530FD007D08AF
:100FB8000800F7009731CB27F6007509F20076088C
:100FC800F20577089731BA2F4F0821005A06031DFA
:100FD80000342000500821005B06031D0034200067
:100FE800510821005C06031D00342000520821002E
:080FF8005D0603190134003409
:1010060090316F2088310C108C10C5278831C7228B
:10101600883120008E160C148C14C30143084F3EF1
:101026008600043087018101C30A4302031C11288C
:1010360009308A2588312000E00001308A25883170
:101046002000DE0000308A258831AA3A031D2F28A9
:101056002000DF01DF0A31282000DF01FF308A256A
:101066008831FF3A031D3B28FF30F601AB22883159
:1010760020005F0803194728F030A2228831F1309A
:10108600A2228831FF304F280C14F030A22288317A
:10109600F130A2228831FE30A222883102308A2520
:1010A6008831EF3A031D81282000C6014608033E19
:1010B6008A2588312000C200C401C50101304407D9
:1010C60084009830453D850000084206031D7228BD
:1010D6004608D43E86008701440881007C28C40A5D
:1010E6000319C50A01304502003003194402031CE6
:1010F60061280630C60A4602031C592864002000EF
:101106005B0803198928DB01AD2088315C080319C7
:10111600A428DC0122002108F03A031D9A282108A0
:10112600A222883122002208A22288312200230826
:10113600A22288312000C5278831C72288312000A5
:101146008E165A080319AA28DA01EE278831CC260A
:1011560088318128A6014708553A031DC4284E0840
:10116600AA3A031DC428A701A801FF30F6002708E4
:10117600AB228831BE27883103192702031CB82801
:101186008D2A4708553A031DD2284E08AB3A031D4F
:10119600D2284908F6004808AB2288318D2A47082C
:1011A600AA3A031DE8284E08553A031DE828A70168
:1011B600A80127088A258831A2228831BE278831CE
:1011C6000319270203188D2ADC284708553A031D00
:1011D60003294E08BB3A031D03294808EF004908B6
:1011E600EE004A08EC004B08ED004C082100E60032
:1011F600E70120004D082100E800392388318D2AB7
:101206004708BB3A031D30294E08553A031D3029BD
:10121600E2228831BB30A22288310630A2228831F0
:1012260020006F08A222883120006E08A222883191
:1012360020006C08A222883120006D08A222883185
:1012460021006608A222883121006708A22288317F
:1012560021006808A2228831742A4708553A031DDE
:101266004A294E08CC3A031D4A29480B4029AA3080
:10127600F6000030AB2288318D2A4808023A031D59
:101286008D2A5530F6000030AB2288318D2A47086A
:10129600CC3A031D5E294E08553A031D5E29CC3013
:1012A600A22288310430A222883100308A25883172
:1012B600A2228831742A4708553A031D6C294E0824
:1012C600DD3A031D6C294808F6000930AB22883147
:1012D6008D2A4708DD3A031D80294E08553A031D1D
:1012E6008029DD30A22288310430A22288310930DB
:1012F6008A258831A2228831742A4708553A031D67
:101306008E294E08EE3A031D8E294808F600013054
:10131600AB2288318D2A4708EE3A031DA2294E08D2
:10132600553A031DA229EE30A22288310430A222AA
:10133600883101308A258831A2228831742A4708EB
:10134600553A031DDA294E08FF3A031DDA29EF3014
:10135600F6000230AB22883120004808A2278831E7
:101366000330AB22883120004908A2278831043097
:10137600AB22883120004A08A22788310530AB22EB
:10138600883120004B08A22788310630AB228831ED
:1013960020004C08A22788310730AB228831200074
:1013A6004D08A22788310830AB2288318D2A47089C
:1013B600FF3A031D2A2A4E08553A031D2A2AFF30F2
:1013C600A22288310930A22288312000A701A80173
:1013D6002708033E8A25883186238831F8002000B5
:1013E6002708203E8600870178088100A70A03198E
:1013F600A80A00302802063003192702031CEB292D
:101406002008A222883120002108A222883120004B
:101416002208A222883120002308A2228831200037
:101426002408A222883120002508A22288315530BE
:10143600A22288312000A701A8012708203EB5274F
:10144600883106300319270203188D2A202A4708F7
:10145600993A031D762A4E08553A031D762AFF301F
:101466008A2588312000A6009930A22288312000E2
:10147600A701A70AA8012608013EF80000300318B4
:101486000130F9002802031D4A2A780827020318AA
:10149600742A2708090709073C3E8A258831A222B3
:1014A600883120002708090709073D3E8A2588312B
:1014B600A222883120002708090709073E3E8A250F
:1014C6008831A222883120002708090709073F3EF4
:1014D6008A258831A22288312000A70A0319A80A82
:1014E6003E2A55308B2A4708883A031D962A4E080D
:1014F600553A031D962A0030BD228831A222883132
:101506000130BD228831A22288310230BD228831C5
:10151600A222883120008E126430F000F101C72229
:10152600883120008E16A701A8012708473EB52757
:10153600883108300319270203180800982AF0009A
:1015460023009E1CA32A70089A009E180800A82A49
:10155600F700C8258831A0309E25883177089E255A
:10156600883176089E258831A02388310530F00021
:10157600F101C72AF0008B13230091009201951305
:1015860015148B1713080800F201F3017108730292
:10159600031DCF2A7008720203180800F401F50132
:1015A6006400F40A0319F50A00307502963003192F
:1015B6007402031CD32AF20A0319F30AC92A8D30CE
:1015C600062388312000EF00893006238831200069
:1015D600EE008730062388312000EC008530062394
:1015E60088312000ED008330ED1306238831210079
:1015F600E6008130062388312100E7008B30062380
:101606002100E8000800F20020000E100000000093
:1016160020000E110000000020000E140000000043
:1016260072081F238831B123F30020000E100E1517
:101636000000000073080800F0000830F100701C7C
:10164600292B20008E14000000002D2B20008E1068
:101656000000000020000E110000000020000E1502
:1016660000000000F036F10B222B08008E30F2014C
:101676006E23883121006708F2008030F2136E2352
:10168600883121006608F20082306E2388312000FE
:101696006D08F2003F30F20584306E238831200059
:1016A6006C08F20086306E23883120006E08F20046
:1016B60088306E23883120006F08F2008C306E234C
:1016C600883121006808F2008A306E238831803024
:1016D600F2008E306E2BF30020000E10000000008A
:1016E60020000E110000000020000E140000000073
:1016F60073081F23883172081F2320000E100E1551
:10170600000000000800F000F101F201013071074D
:1017160084009830723D850000087006031D952BE5
:1017260071080800F10A0319F20A0130720200304A
:101736000319710203180034892B20000E120000D1
:1017460020008E15000000000000000000002000B0
:101756000E1600000000000000000800F001210045
:101766008E14F101F03620000E1500000000200056
:101776000E110000000020008E18F0170830F10A44
:101786007102031CB52B21008E1070080800200082
:101796002E30C1018600003087001030AD000030C9
:1017A6001E00AD0BD32B2E30FB006008090709077E
:1017B6000C268831C100C108031D0C2C0F30F00027
:1017C6002E30DE2588313D06031D0C2C2E08A03A4E
:1017D600031D282C0330D6005F0803190E2C5B2549
:1017E60088310038031D0C2C5530F6000030AB2232
:1017F60088312000F030DF01A2228831F130A222A8
:101806008831FE30A222883120000C140D128D1270
:10181600562DC101592D5B2588310038031D0C2C2E
:10182600AA30F6000030AB2288312000F030DF010C
:10183600DF0AA2228831F130A2228831FF30A222AB
:10184600883120000D168D16562D2E08A13A031D3F
:101856003B2C0230D6005F0803190C2C5B2588311F
:101866000038031D0C2C2F08DE00F6000130552D24
:101876002E08A23A031D5F2C0630D6005F08031916
:101886000C2C5B2588310038031D0C2C2F08EF002B
:101896003008EE003108EC003208ED003308210074
:1018A600E600200034082100E7002000350821006A
:1018B600E80039238831562D2E08A33A031D7A2CC9
:1018C6000430D6005F0803190C2C5B2588310038DC
:1018D600031D0C2CF030A2228831F130A22288316F
:1018E600FC30A22288312000DD01DD0A092C2E08F9
:1018F600A43A031D432DD601D60A5F080319362DD7
:101906005B2588310038031D362D2F082100C600BF
:1019160001308A25883121004606031D0034200047
:1019260030082100C700470BB62C20003108BF0045
:101936003208BE003F04031900340130BE020030F5
:10194600BF3B3F08B1003E08B2000F30F0002E301A
:10195600DE25BD002E30FB0060080907090794311B
:10196600662488310A2D4708023A031D062D2000F9
:1019760031082100C800200032082100C9002000DB
:1019860033082100CA00200034082100CB00E222DF
:10199600883120006F0821004802031C00344808E3
:1019A60020006F06031DDC2C6E0821004902031C73
:1019B60000342100480820006F06031DED2C21008D
:1019C600490820006E06031DED2C6C0821004A0212
:1019D600031C00342100480820006F06031D0A2D51
:1019E6002100490820006E06031D0A2D21004A0821
:1019F60020006C06031D0A2D21004B0820006D02F5
:101A0600031800340A2DC801C901CA01CB01200000
:101A16003C082100CC0020003B082100CD0020001E
:101A26003A082100CE00200039082100CF0020000E
:101A360038082100D000200037082100D1002000FE
:101A460036082100D200200035082100D300C63018
:101A56009131062188312000DD01DD0A0D128D123B
:101A6600C101C10A372DC101C0014008C63E86002A
:101A76000E3087018101C00A40020318592D382D06
:101A86002E08A83A031D0C2C0830D6005F0803194F
:101A96000C2C5B2588310038031D0C2C2F08E00028
:101AA600F6000930AB222000C101C10A4108080036
:101AB600F401740809070907403E8A258831200089
:101AC6005206031D842D740809070907413E8A251D
:101AD600883120005106031D842D74080907090763
:101AE600423E8A25883120005006031D842D740845
:101AF60009070907433E8A25883120004F06031946
:101B060001342C30F40A7402031800345C2DF20000
:101B1600C8258831A0309E25883172089E258831D7
:101B2600C8258831A1309E258831F1258831F300FA
:101B3600A02373080800F000F101F01FA52D200076
:101B46000E16A72D20000E12000020008E15000094
:101B5600000000000000000020008E110000083088
:101B6600F035F10A7102031CA02D000000002000D0
:101B76000E160000000020008E1500000000000078
:101B860020008E1100000000080020000E16000044
:101B960020008E150000000000000000000020005C
:101BA6000E120000000000000000000020008E1150
:101BB600000000000800F300F401F201F4017008CF
:101BC60074020318EF2D74087307F100860087016D
:101BD6000108F207F40AE22D72080800F00121005C
:101BE6000E16F10100000000000020008E15000016
:101BF6000000F03520000E1AF00A000020008E11B9
:101C06000830F10A7102031CF52D21000E1270082E
:101C16000800AA0066260430F500F6019631232650
:101C260088310F30F20022309731BA2788312000F0
:101C360030309731E22788312100B60020002A088B
:101C46002100B70002302000E7001E3096316426DE
:101C56008831AB002B080319492E2B0A0319432E92
:101C66006908043A031D432E0F302100A6052608F5
:101C76000A39031D402EF630412EFA302000AB0003
:101C8600AC01AB27883103185E2E442E6808103A43
:101C96000319552EF430AB00AC01AB27883103187D
:101CA6005E2E502EA630F0000030F1001030F2000B
:101CB600F3017B08AE26F501F50AF60196312326D7
:101CC60020002B0808000930F501F50A9731DA2FB4
:101CD600FC006A30F500F601963123268831033080
:101CE600F20022309731BA2788310830F2000930E5
:101CF6009731BA2788310730F2000F309731BA276B
:101D0600883120009731E22788317C082100B6000F
:101D160020001E30E701E70A963164268831FD006F
:101D26007D0803199B2E7B08860087018101AC2E56
:101D36006908103A0319A22EF530FD00AC2EA63024
:101D4600FD01F0000030F1000230F200F3017B08E3
:101D5600AE267D080800F7007108F5007008F4004B
:101D66007708F6000130F2020030F33B720A0319DD
:101D7600730A031908007608860087017408840030
:101D86007508850000088100F40A0319F50AF60AA9
:101D9600B52E8A2788310038031D162F0530D70047
:101DA6007E278831003A031908008731E8278831F1
:101DB6000038031D0800640021005A082000CF00E7
:101DC60021005B082000D00021005C082000D10023
:101DD60021005D082000D2002100A000200051084B
:101DE6002100A100200050082100A20020004F0879
:101DF6002100A30023278831003A03190F2F64001E
:101E0600CA238831003A03190C2F90311620053069
:101E1600D7002000D60108006400D0278831003A98
:101E260003190800032F0B305702031C212F05301E
:101E3600CF01D001D101D201D7000800D70A08008E
:101E4600D430372788310038031D0034DA30FB00E0
:101E5600600809070907FC006030943118248831AE
:101E66000038031901340034FC00B630F0007C0859
:101E76004E276A30F500F60196312326883166260C
:101E860020000C309731E2278831E700193096316F
:101E96006426FB000800F300F601F501F401F601E3
:101EA60076087307F100860087010108F5000F30F8
:101EB600F50576087307F10086000108F200720E38
:101EC6000F39F40076357007F100710A860075093E
:101ED600890EF0397504810076357007F1008600A9
:101EE6007409890EF039740481000630F60A760208
:101EF60003180800532FDA30852788310038031974
:101F060001340034AA00FB0093308731A02FDE3065
:101F16002000AA002630CB278831DA30FD000030B9
:101F26009A278831BE003E08031D01340034200084
:101F3600BD00FB007D08FC0093309431D52C013E9A
:101F4600840098300318013E85000008F60008005A
:101F56002C087B07FC008600103087018101AC0A43
:101F66002C020800860087018101A70A0319A80A26
:101F76000030280208002000A70A0319A80A013029
:101F8600280200348E12F430F0000130F10008000F
:101F9600AB002A08FB002B086B2E8A2788310038F5
:101FA600031D00347E278831003A03190034E030DF
:101FB600372788310038031D0034DA30FB0060080B
:101FC60009070907FC00603094311824883100386D
:101FD6000319013400345F080319F32F01308C060E
:101FE6005D08031908000830E30A6302031C0800B1
:101FF600E301DD010D168D1608009031172890318A
:102006001728903117289031172890312E289031B3
:102016002E2890312E2890312E286400800101311F
:10202600890B1128003420288E126430F000F1014B
:102036008A31C72220008E16080020005608FF3E6F
:10204600031C0800840008300402031808009031BD
:102056000435003E82000800F501F11F3928F00919
:10206600F109F00A0319F10AF501F50AF31F4228EE
:10207600F209F309F20A0319F30A0130F506F6012B
:10208600F7017108700403196228F401F40AF11BC0
:102096004F28F035F10D4928F635F70D7108730212
:1020A600031D572870087202031C5E287008F2028E
:1020B6007108F33B7614F136F00CF40B4F287508D3
:1020C60003196A28F609F709F60A0319F70A7708C1
:1020D600F1007608F0000800C5209031C920903143
:1020E600AF209031D02090318E209031D920903180
:1020F600EA20903192209031A6209031AC20903188
:10210600B62097316D2790310230FF206400200001
:102116000D168D1608008E1220008E16080020005F
:102126000E100E158E1421000E100E118E10083092
:102136002000EF00EE00EC00ED002100E600E700D5
:10214600E801E80A08008E110E1220008E150E1600
:1021560008000B178B17080021000C108C102000AC
:102166000C148C14080021009011101210139013F7
:102176009012FF308F002200901110169016101743
:1021860090130800703021009900080023008C018C
:10219600900128008C018D010800E0309700C030C6
:1021A60096004130980021001114080033302300B6
:1021B6009B009C0108309F0021000E138E172030D3
:1021C60023009E0090309D002100911608002600F5
:1021D6000D1027000D1033302900930094010830AC
:1021E600970026008D100D1520302900960090309E
:1021F6009500210094160800F500F2000730F2055C
:1022060026309731BA2F2000A000A1012108223ED6
:102216008600870121082007F600063E8400850116
:10222600000881000830A10A2102031C09292203A3
:10223600031939292208023A031939292208043ACE
:10224600031939292208083A031939292208103AAC
:10225600031939292208203A031939292208403A54
:10226600031939292208803A031D7B29A308031D77
:102276007B29A408031D7B29A508031D7B29A60825
:10228600031D7B29A708031D7B29A808031D7B299D
:10229600A908031960297B2901308A31A22A023054
:1022A6005029043050290830502911305029123055
:1022B600502914305029183050292208013A0319A0
:1022C6004F29033A03195229063A031954290C3A9D
:1022D60003195629183A03195829303A03195A2965
:1022E600603A03195C29C03A03195E298731832FA6
:1022F600A208031DDA29230303199D292308023A9C
:1023060003199D292308043A03199D292308083A2D
:1023160003199D292308103A03199D292308203AF9
:1023260003199D292308403A03199D292308803A59
:10233600031DDA29A408031DDA29A508031DDA29D5
:10234600A608031DDA29A708031DDA29A808031D14
:10235600DA29A9080319C029DA292130502922309F
:102366005029243050292830502931305029323014
:10237600502934305029383050292308013A03199E
:10238600B029033A0319B229063A0319B4290C3ABB
:102396000319B629183A0319B829303A0319BA2984
:1023A600603A0319BC29C03A0319BE297929A20843
:1023B600031D392AA308031D392A24030319FF29FB
:1023C6002408023A0319FF292408043A0319FF29AD
:1023D6002408083A0319FF292408103A0319FF298B
:1023E6002408203A0319FF292408403A0319FF2933
:1023F6002408803A031D392AA508031D392AA60890
:10240600031D392AA708031D392AA808031D392ADE
:10241600A90803191F2A392A413050294230502968
:1024260044305029483050295130502952305029D3
:1024360054305029583050292408013A03190F2ADC
:10244600033A0319112A063A0319132A0C3A0319F7
:10245600152A183A0319172A303A0319192A603A25
:1024660003191B2AC03A03191D2A7929A208031D3C
:102476006E2AA308031D6E2AA408031D6E2A2503CF
:102486000319612A2508023A0319612A2508043A24
:102496000319612A2508083A0319612A2508103A02
:1024A6000319612A2508203A0319612A2508403AAA
:1024B6000319612A2508803A031D6E2AA608031D02
:1024C6006E2AA708031D6E2AA808031D6E2AA908EE
:1024D60080310319AD288031C92861305029623016
:1024E6005029F7019011F801F9016400F80A03195F
:1024F600F90A40307902743003197802031C782AED
:1025060022009015F801F9016400F80A0319F90A86
:1025160006307902723003197802031C872A2200DA
:10252600901110129016101790131030F3002730E8
:10253600F4001530F500F6010130E9239231F2007E
:102546003F393F3A0319BF2A76087504013003194B
:10255600C02AF30213249231031D9F2A1030FF2351
:1025660092319F2A64000130F30213249231031D35
:10257600BF2A1030FF2392310130E92392313F39CF
:102586000319C92A76087504031DB52A7608750449
:10259600031DCF2AE730F700F708031DE62A80302F
:1025A600F0000030D0239231220090130130E9234D
:1025B6009231F70077080319E32AE630F700E62A96
:1025C6000030F001D02377080800540803190800EA
:1025D6005508031908005308031908000030E923B9
:1025E6009231F7008030F0000030D0239231033072
:1025F600E923923108390319CB2B0630E9239231AE
:10260600F6000730E9239231FA007608FA05200031
:102616005408063E860087017A0881047A1C5F2BDF
:102626000430E9239231403CF900072492315408E2
:10263600033E840085010008F200F3017308F500EB
:1026460001087202F400031CF5037508803A803C09
:10265600031D2F2B74087902031C422B20005408FB
:10266600033E860087015408023E84008501000867
:102676000102F9000630F001F00AD0239231F80188
:102686007908780203185A2B20005408023E860067
:10269600870101085507F20086000108F0000230A4
:1026A600D023923107249231810AF80A432B07304E
:1026B600F001F00AD02392317A1E7C2B1030F00004
:1026C6000730D02392318230F0000630D023923189
:1026D60020005408860087010108933A031D7C2BCD
:1026E6000230F0002230D02392310030F001D023A6
:1026F60092317A080E390319A52B0430E923923159
:10270600F900F8017908780203189E2B2000540876
:10271600043E8600870101085307F2008600023056
:10272600E9239231810020005408043E8600870187
:10273600810AF80A852B7A08F0000A30F00507307E
:10274600D02392317A1DBD2B2030F0000630D023E5
:1027560092312030F0000730D0239231FA12200057
:102766005408063E8600043087018112F0000730C7
:10277600D0239231FA1EFA2A2030F0000730D023F7
:1027860092312000540A8600FF3087018100FA2A20
:1027960077088038F0000030D02BF10022001016A8
:1027A60021008F0171080D2490121012700820006C
:1027B6008F002200101300000000000022001017F6
:1027C60010169016FF3021008F000800F00022003E
:1027D600101621008F0170080D24FF3021008F0094
:1027E600220090161012101320000F08F10022008C
:1027F6001017101671080800F3002730F400013096
:10280600F5020030F63B080020005408023E860020
:102816008701080020008F002200901790130800FF
:102826000030F43B740873040800AA000A30CB2772
:1028360094312000AB002B080319272C2B1F252CC5
:10284600F7304F2CFC304E2C0430F500F6012326D1
:1028560020002A082100B6007C08B7007B08F0009B
:102866000430F101F200B830F3018E31AE26943116
:1028760020000630E2279431E7000C3064269431BC
:10288600AB00AB08031D642C0530CB279431073908
:102896000319512CF5302000AB00642C20001430B5
:1028A600E2279431E70164269431AB00AB08031D9F
:1028B600642C0930CB27943108390319252C2000C4
:1028C600AB012B080800FC008E31662694310430DB
:1028D600F500F601232694310730F2002230BA279C
:1028E60094312000A030E22794312100B6007C0804
:1028F600B70002302000E7001E3064269431FD0048
:102906007D0A03199F2C6908043A03198C2CF530AB
:10291600952C0F302100A605972CF630952CFD013D
:102926009F2CFA30FD009F2C2608003A0319902CA4
:102936000A3A0319922C942CFD08031D08008E31C7
:10294600662694310330F500F601232694312000E3
:10295600E2277B08F0001030F101F200B630F301F7
:102966008E31AE26943110302000E7001E306426EA
:102976009431FD007D0A0319D12C6908043A031D20
:10298600D12C0F302100A605C92CD12C2608003ADF
:102996000319C82C0A3A0319C82CC82CF501F50AE4
:1029A600F601232EAE006A30BA01BB01B301BC01A9
:1029B600B401F500F60123267C08F0000430F1018D
:1029C600F2003530F3018E31AE2694312830F20014
:1029D6001A30BA270830F50009308731DD279431DF
:1029E6002000B301F82D0330E2279431F2002230A3
:1029F600BA2794317B082000BB000730BB053B0893
:102A060003191C2D3B0EF0393B04F2000F30BA2798
:102A16009431EB279431013EB9003B08073A031D78
:102A2600232D9330E4003B08F2000F30BA2794318F
:102A3600232D7B08AA00AA36AA36AA362A08B90088
:102A460020002E082100B600EB279431890EF039BC
:102A56003B07203E2100B7002000BC0139083C029C
:102A660003183E2D3C08B83E860087013C08353EDB
:102A7600FA279431312D3908023EE7001E306426CC
:102A86009431BA003B08073A031D8A2DB201BC01F6
:102A960068083C020318752D3C08A63E860087018F
:102AA6000108B1003C08A63E86003C08A63E84000C
:102AB60085010008AA003C08073C890A632DAA354F
:102AC600890B622D3208AB003C08013E890A6C2D49
:102AD600AB36890B6B2D2B082A0481003108B20016
:102AE600BC0A4B2D6808E9026B0803198A2D6B088E
:102AF600F2000630F301F2070318F30A0930F0007A
:102B0600F10190312F2094317008073CEB073A0809
:102B16000319912D3A08E83A031DF82DAB017B08FD
:102B2600283CAA00031CAB036908AC00AD012B08C6
:102B36002D06031DA02D2A082C060319A42DF530F9
:102B4600EF2DB4013B080319B92D3908FF3E353E78
:102B5600860087013908FF3E353E8400850100085E
:102B66002100260481002000B401B40ABC01AB0197
:102B76003908043CAA00031CAB032B08803A803CAE
:102B8600031DC72D2A083C020318DB2D3530200013
:102B96003C07AA0039082A07AB008600A630870141
:102BA6003407AC003C082C07AD00FA279431BA2D47
:102BB60020003A08E83A0319F42D36083706380695
:102BC6003506AF006808A53E860087010108B000FB
:102BD6002F060319F12DF830BA00F82DB301B30A08
:102BE600F82D3B086B02FB07BA01B30803193A0834
:102BF6000319F62CBA08031D042E3530F0000030F8
:102C0600132EBC013C087C07AA008600043087010D
:102C16008101BC0A3C02031C052E0130F0009930EC
:102C2600F1000430F200F3017C088E31AE269431B7
:102C36002030F5001A308731DD2720003A080800D9
:102C46007608003A0319552E4C2E0730F2002A302A
:102C5600BA2794316A30F2002C30BA2F0730F200CE
:102C66002A30BA279431A030F2002C30BA2F09301E
:102C7600F2002A30BA279431A030F2002C30BA2F55
:102C86000930F2002A30BA279431FF30F2002C3096
:102C9600BA2F0730F2002A30BA2794317508F200AD
:102CA6002C30BA2F7508013A0319282E033A031956
:102CB600312E013A03193A2E073A0319432E4C2EA8
:102CC6000800A5003F30A801A601A701F2000630C2
:102CD600BA2794317F30F2000730BA279431013099
:102CE600F201BA278E316626943164302000D40072
:102CF600B630D500A630D300EA01A32EA601A7015F
:102D0600C92E1130A6001030972E0730952E0530AB
:102D1600952E0430A600972E0F30CB279431F3273B
:102D260094310630A6000430A700C92E0F30CB27F9
:102D36009431F32794313D30952EE930A800C92E01
:102D46002508003A0319812E013A0319842E023A06
:102D56000319882E043A03198A2E0C3A03198A2E6F
:102D6600073A03198A2E1E3A0319842E063A0319C6
:102D76008C2E023A03198F2E0F3A03198A2E033A24
:102D860003198A2E043A0319992EA02EA808031DAA
:102D9600682F1030A616A716A0002730A100143001
:102DA600A200A30126088038F2000630BA27943123
:102DB60020002508F2000130BA279431200054087B
:102DC600063E8600870101082705031D032F923161
:102DD600E82294312000230822040319032F01302E
:102DE600A0020030A13B21082004031DE12E103073
:102DF600A0002730A1000130A2020030A33BE12E43
:102E06003F30F2000630BA2794317F30F2000730A7
:102E1600BA2794310430F5000930DA2794310130AD
:102E2600F201BA279431200023082204031D1D2F26
:102E3600E530212F540886008701413FA800A808E5
:102E4600031D672F0A30CB2794312000A9001730C5
:102E5600A90503194C2F291C372F0B30CB2794318A
:102E66002000EB00E8303B2FEB01A91C3C2FFB3088
:102E7600A800291D402FEB30A800291E482F8E31AF
:102E860066269431ED302000A800A91D4C2FFE3097
:102E9600A80025081E3A031D682F0530CB2794315C
:102EA6002000A4000730A40524080319612F680830
:102EB6000907090709072407F83E652F6808090767
:102EC60009070907E907682FEB01D401D501D301EA
:102ED60028080800923174229431FC00FC08031D76
:102EE60008008030F2001F30BA279431FD01CD3042
:102EF600FD0A7D02031C7A2FC030F2001F30BA276C
:102F06009431FD016930FD0A7D02031C852F403096
:102F1600F5001F308731DD279431AD30F2001B30CC
:102F2600BA279431FF30F2001C30BA27943173303F
:102F3600F2001930BA2794318130F2001E30BA27D8
:102F460094310430F2002930BA2794310230F2006D
:102F56002B30BA279431F501F50AF6012326943170
:102F66000330F2002D30BA2701308731862FF40066
:102F7600F300F336F336F33673088038F00000308A
:102F86009331D02394317208F00074089331D02B1A
:102F9600F300F200F236F236F23672088038F000AC
:102FA60000309331D023943173089331E92BF70025
:102FB600CB279431F6007504F2007708BA2FE401A6
:102FC600E501EA01E601E701E801E901EB01080094
:102FD6007B082000AA00AA36AA36AA362A080800C4
:102FE600890E0F39FF3A013E2000E90008008400EF
:102FF600850100088100BC0A08000034FF34FD3456
:10300600F934F334EB34E134D534C734B734A5346A
:1030160091347B34633449342D340F34FC34F83422
:10302600F234EA34E034D434C634B634A4349034BA
:103036007A34623448342C340E341034F734F13494
:10304600E934DF34D334C534B534A3348F3479341A
:10305600613447342B340D3411342E34F034E834D3
:10306600DE34D234C434B434A2348E34783460348A
:1030760046342A340C3412342F344A34E734DD34DF
:10308600D134C334B334A1348D3477345F3445340A
:1030960029340B34133430344B346434DC34D034B8
:1030A600C234B234A0348C3476345E34443428349A
:1030B6000A34143431344C3465347C34CF34C1345E
:1030C600B1349F348B3475345D344334273409343A
:1030D600153432344D3466347D349234C034B034D1
:1030E6009E348A3474345C344234263408341634BC
:1030F60033344E3467347E349334A634AF349D343F
:10310600893473345B34413425340734173434340A
:103116004F3468347F349434A734B8349C348834BC
:1031260072345A3440342434063418343534503426
:10313600693480349534A834B934C834873471344A
:1031460059343F34233405341934363451346A340F
:1031560081349634A934BA34C934D63470345834E8
:103166003E34223404341A34373452346B348234C5
:103176009734AA34BB34CA34D734E23457343D3496
:10318600213403341B34383453346C348334983448
:10319600AB34BC34CB34D834E334EC343C34203454
:1031A60002341C34393454346D3484349934AC3498
:1031B600BD34CC34D934E434ED34F4341F34013422
:1031C6001D343A3455346E3485349A34AD34BE34B5
:1031D600CD34DA34E534EE34F534FA3400341E34C2
:1031E6003B3456346F3486349B34AE34BF34CE34DD
:1031F600DB34E634EF34F634FB34FE34303430342A
:06320600303430340034C6
:020000040001F9
:04000E00FCDFFFFE16
:10E00000000003000100FF00FF00FF00FF00FF0011
:00000001FF
