:0400000080317728AC
:1000080080312100111C3D282000111C3D281110B1
:10001800E0309700C03096002100A40A0319A50A11
:1000280003302502E83003192402031C2028A40108
:10003800A5012000DA01DA0A200058080319262849
:10004800D8032A28D808031D2A28E10159080319CA
:100058003D28D90B3D286208053A031D3B2822009C
:100068002408AA3A031D3B282000DC01DC0A2000F2
:10007800E2012100911E5A282000911E5A2891124F
:100088006108473E86008701230019088100200087
:100098000330E10AD8006108083A031D5628E10137
:1000A800DB01DB0A093061020318E1012100941E1B
:1000B80009002000941E09009412DC08031D0900A1
:1000C8006208203E8600013087002900110881005F
:1000D80022002008553A031D73282000E20A053043
:1000E8002000D90009008031792847308400003089
:1000F80085002530883118208031A03084000030F8
:10010800850040308831182080312030840001304B
:1001180085001030883118202100A130E000A2307D
:10012800E100A330E200B030E300B130E400003079
:10013800E50020008B31C82B64308B31A32B68304D
:10014800A1287130A1287230A1287430A1287830F4
:10015800A1282508013A923103196C2A8031033A03
:100168000319842F063A0319A0280C3A0319A32867
:10017800183A0319A528303A0319A728603A031931
:10018800A928C03A0319AB28832FA208031D2829E0
:10019800A308031D2829A408031D2829A508031D51
:1001A800282926030319F4282608023A0319F428F3
:1001B8002608043A0319F4282608083A0319F428EB
:1001C8002608103A0319F4282608203A0319F428B7
:1001D8002608403A0319F4282608803A031D2829DE
:1001E800A708031D2829A808031D2829A9080319F9
:1001F8000E2928298130A1288230A1288430A128FD
:100208008830A1289130A1289230A1289430A128C3
:100218009830A1282608013A0319FE28033A031941
:100228000029063A031902290C3A03190429183A35
:1002380003190629303A03190829603A03190A29CB
:10024800C03A03190C29832FA208031D8729A30884
:10025800031D8729A408031D8729A508031D8729CD
:10026800A608031D87292703031956292708023AD8
:10027800031956292708043A031956292708083A62
:10028800031956292708103A031956292708203A2E
:10029800031956292708403A031956292708803A8E
:1002A800031D8729A808031D8729A90803196D2993
:1002B8008729A130A128A230A128A430A128A830DC
:1002C800A128B130A128B230A128B430A128B83073
:1002D800A1282708013A03195D29033A03195F2960
:1002E800063A031961290C3A03196329183A0319C4
:1002F8006529303A03196729603A03196929C03A10
:1003080003196B29832FA208031DE629A308031DDF
:10031800E629A408031DE629A508031DE629A60861
:10032800031DE629A708031DE62928030319B82990
:100338002808023A0319B8292808043A0319B829E1
:100348002808083A0319B8292808103A0319B829BF
:100358002808203A0319B8292808403A0319B82967
:100368002808803A031DE629A9080319CC29E6299B
:10037800C130A128C230A128C430A128C830A12882
:10038800D130A128D230A128D430A128D830A12832
:100398002808013A0319BC29033A0319BE29063A69
:1003A8000319C0290C3A0319C229183A0319C42998
:1003B800303A0319C629603A0319C829C03A031903
:1003C800CA29832FA208031D452AA308031D452A0D
:1003D800A408031D452AA508031D452AA608031DD0
:1003E800452AA708031D452AA808031D452A2903ED
:1003F80003192B2A2908023A03192B2A2908043A37
:1004080003192B2A2908083A03192B2A2908103A14
:1004180003192B2A2908203A03192B2A2908403ABC
:1004280003192B2A2908803A03192B2A452AE13077
:10043800A128E230A128E430A128E830A128F13031
:10044800A128F230A128F430A128F830A1282908E1
:10045800013A03191B2A033A03191D2A063A0319FC
:100468001F2A0C3A0319212A183A0319232A303A69
:100478000319252A603A0319272AC03A0319292A99
:10048800832F221C592AF0308B31A3238031F1307D
:100498008B31A323803101308B31A32380319630F7
:1004A800F000F1018C31C62480312000A21C6E2A94
:1004B800F0308B31A3238031F1308B31A32380318D
:1004C80002308B31A32380319630F000F1018C315A
:1004D800C62480312000221D832AF0308B31A323CB
:1004E8008031F1308B31A323803104308B31A32349
:1004F80080319630F000F1018C31C6248031200023
:10050800A21D982AF0308B31A3238031F1308B3132
:10051800A323803108308B31A32380319630F0003B
:10052800F1018C31C62480312000221EAD2AF03022
:100538008B31A3238031F1308B31A32380311130EB
:100548008B31A32380319630F000F1018C31C62421
:1005580080312000A21EC22AF0308B31A3238031C3
:10056800F1308B31A323803112308B31A3238031BA
:100578009630F000F1018C31C62480312000221F12
:10058800D72AF0308B31A3238031F1308B31A3236C
:10059800803114308B31A32380319630F000F10183
:1005A8008C31C62480312000A21FEC2AF0308B3118
:1005B800A3238031F1308B31A323803118308B3164
:1005C800A32380319630F000F1018C31C6248031AC
:1005D8002000231C012BF0308B31A3238031F13014
:1005E8008B31A323803121308B31A3238031963086
:1005F800F000F1018C31C62480312000A31C162B99
:10060800F0308B31A3238031F1308B31A32380313B
:1006180022308B31A32380319630F000F1018C31E8
:10062800C62480312000231D2B2BF0308B31A323CF
:100638008031F1308B31A323803124308B31A323D7
:1006480080319630F000F1018C31C62480312000D1
:10065800A31D402BF0308B31A3238031F1308B3137
:10066800A323803128308B31A32380319630F000CA
:10067800F1018C31C62480312000231E552BF03027
:100688008B31A3238031F1308B31A323803131307A
:100698008B31A32380319630F000F1018C31C624D0
:1006A80080312000A31E6A2BF0308B31A3238031C8
:1006B800F1308B31A323803132308B31A323803149
:1006C8009630F000F1018C31C62480312000231FC0
:1006D8007F2BF0308B31A3238031F1308B31A32372
:1006E800803134308B31A32380319630F000F10112
:1006F8008C31C62480312000A31F942BF0308B311D
:10070800A3238031F1308B31A323803138308B31F2
:10071800A32380319630F000F1018C31C62480315A
:100728002000241CA92BF0308B31A3238031F13019
:100738008B31A323803141308B31A3238031963014
:10074800F000F1018C31C62480312000A41CBE2B9E
:10075800F0308B31A3238031F1308B31A3238031EA
:1007680042308B31A32380319630F000F1018C3177
:10077800C62480312000241DD32BF0308B31A323D5
:100788008031F1308B31A323803144308B31A32366
:1007980080319630F000F1018C31C6248031200080
:1007A800A41DE82BF0308B31A3238031F1308B313D
:1007B800A323803148308B31A32380319630F00059
:1007C800F1018C31C62480312000241EFD2BF0302D
:1007D8008B31A3238031F1308B31A3238031513009
:1007E8008B31A32380319630F000F1018C31C6247F
:1007F80080312000A41E122CF0308B31A3238031CD
:10080800F1308B31A323803152308B31A3238031D7
:100818009630F000F1018C31C62480312000241F6D
:10082800272CF0308B31A3238031F1308B31A32377
:10083800803154308B31A32380319630F000F101A0
:100848008C31C62480312000A41F3C2CF0308B3121
:10085800A3238031F1308B31A323803158308B3181
:10086800A32380319630F000F1018C31C624803109
:100878002000251C512CF0308B31A3238031F1301E
:100888008B31A323803161308B31A32380319630A3
:10089800F000F1018C31C62480312000A51C662CA3
:1008A800F0308B31A3238031F1308B31A323803199
:1008B80062308B31A32380319630F000F1018C3106
:1008C800C62480312000251D7B2CF0308B31A323DA
:1008D8008031F1308B31A323803164308B31A323F5
:1008E80080319630F000F1018C31C624803120002F
:1008F800A51D902CF0308B31A3238031F1308B3142
:10090800A323803168308B31A32380319630F000E7
:10091800F1018C31C62480312000251EA52CF03031
:100928008B31A3238031F1308B31A3238031713097
:100938008B31A32380319630F000F1018C31C6242D
:1009480080312000A51EBA2CF0308B31A3238031D2
:10095800F1308B31A323803172308B31A323803166
:100968009630F000F1018C31C62480312000251F1B
:10097800CF2CF0308B31A3238031F1308B31A3237E
:10098800803174308B31A32380319630F000F1012F
:100998008C31C62480312000A51FE42CF0308B3127
:1009A800A3238031F1308B31A323803178308B3110
:1009B800A32380319630F000F1018C31C6248031B8
:1009C8002000261CF92CF0308B31A3238031F13024
:1009D8008B31A323803181308B31A3238031963032
:1009E800F000F1018C31C62480312000A61C0E2DA8
:1009F800F0308B31A3238031F1308B31A323803148
:100A080082308B31A32380319630F000F1018C3194
:100A1800C62480312000261D232DF0308B31A323DE
:100A28008031F1308B31A323803184308B31A32383
:100A380080319630F000F1018C31C62480312000DD
:100A4800A61D382DF0308B31A3238031F1308B3146
:100A5800A323803188308B31A32380319630F00076
:100A6800F1018C31C62480312000261E4D2DF03036
:100A78008B31A3238031F1308B31A3238031913026
:100A88008B31A32380319630F000F1018C31C624DC
:100A980080312000A61E622DF0308B31A3238031D7
:100AA800F1308B31A323803192308B31A3238031F5
:100AB8009630F000F1018C31C62480312000261FC9
:100AC800772DF0308B31A3238031F1308B31A32384
:100AD800803194308B31A32380319630F000F101BE
:100AE8008C31C62480312000A61F8C2DF0308B312C
:100AF800A3238031F1308B31A323803198308B319F
:100B0800A32380319630F000F1018C31C624803166
:100B18002000271CA12DF0308B31A3238031F13028
:100B28008B31A3238031A1308B31A32380319630C0
:100B3800F000F1018C31C62480312000A71CB62DAD
:100B4800F0308B31A3238031F1308B31A3238031F6
:100B5800A2308B31A32380319630F000F1018C3123
:100B6800C62480312000271DCB2DF0308B31A323E4
:100B78008031F1308B31A3238031A4308B31A32312
:100B880080319630F000F1018C31C624803120008C
:100B9800A71DE02DF0308B31A3238031F1308B314C
:100BA800A3238031A8308B31A32380319630F00005
:100BB800F1018C31C62480312000271EF52DF0303C
:100BC8008B31A3238031F1308B31A3238031B130B5
:100BD8008B31A32380319630F000F1018C31C6248B
:100BE80080312000A71E0A2EF0308B31A3238031DC
:100BF800F1308B31A3238031B2308B31A323803184
:100C08009630F000F1018C31C62480312000271F76
:100C18001F2EF0308B31A3238031F1308B31A32389
:100C28008031B4308B31A32380319630F000F1014C
:100C38008C31C62480312000A71F342EF0308B3130
:100C4800A3238031F1308B31A3238031B8308B312D
:100C5800A32380319630F000F1018C31C624803115
:100C68002000281C492EF0308B31A3238031F1302D
:100C78008B31A3238031C1308B31A323803196304F
:100C8800F000F1018C31C62480312000A81C5E2EB2
:100C9800F0308B31A3238031F1308B31A3238031A5
:100CA800C2308B31A32380319630F000F1018C31B2
:100CB800C62480312000281D732EF0308B31A323E9
:100CC8008031F1308B31A3238031C4308B31A323A1
:100CD80080319630F000F1018C31C624803120003B
:100CE800A81D882EF0308B31A3238031F1308B3151
:100CF800A3238031C8308B31A32380319630F00094
:100D0800F1018C31C62480312000281E9D2EF03040
:100D18008B31A3238031F1308B31A3238031D13043
:100D28008B31A32380319630F000F1018C31C62439
:100D380080312000A81EB22EF0308B31A3238031E1
:100D4800F1308B31A3238031D2308B31A323803112
:100D58009630F000F1018C31C62480312000281F24
:100D6800C72EF0308B31A3238031F1308B31A32390
:100D78008031D4308B31A32380319630F000F101DB
:100D88008C31C62480312000A81FDC2EF0308B3136
:100D9800A3238031F1308B31A3238031D8308B31BC
:100DA800A32380319630F000F1018C31C6248031C4
:100DB8002000291CF12EF0308B31A3238031F13033
:100DC8008B31A3238031E1308B31A32380319630DE
:100DD800F000F1018C31C62480312000A91C062FB7
:100DE800F0308B31A3238031F1308B31A323803154
:100DF800E2308B31A32380319630F000F1018C3141
:100E0800C62480312000291D1B2FF0308B31A323ED
:100E18008031F1308B31A3238031E4308B31A3232F
:100E280080319630F000F1018C31C62480312000E9
:100E3800A91D302FF0308B31A3238031F1308B3155
:100E4800A3238031E8308B31A32380319630F00022
:100E5800F1018C31C62480312000291E452FF03045
:100E68008B31A3238031F1308B31A3238031F130D2
:100E78008B31A32380319630F000F1018C31C624E8
:100E880080312000A91E5A2FF0308B31A3238031E6
:100E9800F1308B31A3238031F2308B31A3238031A1
:100EA8009630F000F1018C31C62480312000291FD2
:100EB8006F2FF0308B31A3238031F1308B31A32396
:100EC8008031F4308B31A32380319630F000F1016A
:100ED8008C31C62480312000A91F0800F0308B31E6
:100EE800A3238031F1308B31A3238031F8308B314B
:100EF800A32380319630F000F1018C31C62408001C
:100F080092316E2AAA008E31F72687310430F50017
:100F1800F6019531D12587310F30F2002230973113
:100F280067278731200030308F31BA278731210079
:100F3800B60020002A082100B70002302000E70090
:100F48001E30963112268731AB002B080319C52FA6
:100F58002B0A0319BF2F6908043A031DBF2F0F304E
:100F68002100A60526080A39031DBC2FF630BD2F1F
:100F7800FA302000AB00AC01E42787310318DC2FDE
:100F8800C02F6808103A0319D12FF430AB00AC0118
:100F9800E42787310318DC2FCC2FA630F00000306F
:100FA800F1001030F200F3017B088E31C32687313F
:100FB800F501F50AF6019531D12520002B08080026
:100FC8002C087B07FC008600103087018101AC0AE1
:100FD8002C0208008F31E92F8F31E92F8F31E92F4B
:100FE8008F31E92F8F31FF2F8F31FF2F8F31FF2F57
:040FF8008F31FF2F07
:10103000640080010131890B1928003420002E3012
:10104000C1018600003087001030AD0000301E0066
:10105000AD0B27282E30FB006008090709078731F0
:1010600086278831C100C108031D61280F30F000B8
:101070002E30852688313D06031D61282E08A03AB2
:10108000031D7D280330D6005F0803196328B225AD
:1010900088310038031D61285530F6000030AC233C
:1010A00088312000F030DF01A3238831F130A32301
:1010B0008831FE30A323883120000C140D128D12CC
:1010C000AB29C101AE29B22588310038031D612842
:1010D000AA30F6000030AC2388312000F030DF0168
:1010E000DF0AA3238831F130A3238831FF30A32303
:1010F000883120000D168D16AB292E08A13A031D4C
:1011000090280230D6005F0803196128B225883183
:101110000038031D61282F08DE00F6000130AA29DF
:101120002E08A23A031DB4280630D6005F08031922
:101130006128B22588310038031D61282F08EF008F
:101140003008EE003108EC003208ED0033082100D1
:10115000E600200034082100E700200035082100C7
:10116000E8001E268831AB292E08A33A031DCF289C
:101170000430D6005F0803196128B2258831003891
:10118000031D6128F030A3238831F130A323883177
:10119000FC30A32388312000DD01DD0A5E282E0803
:1011A000A43A031D9829D601D60A5F0803198B2992
:1011B000B22588310038031D8B292F082100C60075
:1011C00001307224883121004606031D00342000BE
:1011D00030082100C700470B0B2920003108BF0051
:1011E0003208BE003F04031900340130BE02003053
:1011F000BF3B3F08B1003E08B2000F30F0002E3078
:101200008526BD002E30FB006008090709079431D0
:10121000142488315F294708023A031D5B29200006
:1012200031082100C800200032082100C900200038
:1012300033082100CA00200034082100CB00E1253A
:10124000883120006F0821004802031C0034480840
:1012500020006F06031D31296E0821004902031C7E
:1012600000342100480820006F06031D4229210098
:10127000490820006E06031D42296C0821004A021D
:10128000031C00342100480820006F06031D5F295D
:101290002100490820006E06031D5F2921004A082D
:1012A00020006C06031D5F2921004B0820006D0201
:1012B000031800345F29C801C901CA01CB0120000D
:1012C0003C082100CC0020003B082100CD0020007C
:1012D0003A082100CE00200039082100CF0020006C
:1012E00038082100D000200037082100D10020005C
:1012F00036082100D200200035082100D300C63076
:101300009131022188312000DD01DD0A0D128D129C
:10131000C101C10A8C29C101C0014008C63E860036
:101320000E3087018101C00A40020318AE298D29C1
:101330002E08A83A031D61280830D6005F0803195B
:101340006128B22588310038031D61282F08E0008C
:10135000F6000930AC232000C101C10A4108080091
:10136000A6014708553A031DC7294E08AA3A031D8E
:10137000C729A701A801FF30F6002708AC23883150
:10138000D527883103192702031CBB298E2B470858
:10139000553A031DD5294E08AB3A031DD5294908F6
:1013A000F6004808AC2388318E2B4708AA3A031D63
:1013B000EB294E08553A031DEB29A701A801270880
:1013C00072248831A3238831D52788310319270255
:1013D00003188E2BDF294708553A031D062A4E08AD
:1013E000BB3A031D062A4808EF004908EE004A08E8
:1013F000EC004B08ED004C082100E600E70120005E
:101400004D082100E8001E2688318E2B4708BB3A84
:10141000031D332A4E08553A031D332AE12588312E
:10142000BB30A32388310630A323883120006F0806
:10143000A323883120006E08A323883120006C0884
:10144000A323883120006D08A3238831210066087A
:10145000A323883121006708A3238831210068086D
:10146000A3238831752B4708553A031D4D2A4E0892
:10147000CC3A031D4D2A480B432AAA30F60000300F
:10148000AC2388318E2B4808023A031D8E2B553031
:10149000F6000030AC2388318E2B4708CC3A031D70
:1014A000612A4E08553A031D612ACC30A3238831A6
:1014B0000430A3238831003072248831A32388317B
:1014C000752B4708553A031D6F2A4E08DD3A031D58
:1014D0006F2A4808F6000930AC2388318E2B470864
:1014E000DD3A031D832A4E08553A031D832ADD3059
:1014F000A32388310430A323883109307224883132
:10150000A3238831752B4708553A031D912A4E08AD
:10151000EE3A031D912A4808F6000130AC238831C9
:101520008E2B4708EE3A031DA52A4E08553A031D97
:10153000A52AEE30A32388310430A323883101305B
:1015400072248831A3238831752B4708553A031D2F
:10155000DD2A4E08FF3A031DDD2AEF30F600023087
:10156000AC23883120004808C32788310330AC23DE
:10157000883120004908C32788310430AC238831E2
:1015800020004A08C32788310530AC238831200069
:101590004B08C32788310630AC23883120004C0823
:1015A000C32788310730AC23883120004D08C3277A
:1015B00088310830AC2388318E2B4708FF3A031D51
:1015C0002B2B4E08553A031D2B2BFF30A3238831BC
:1015D0000930A32388312000A701A8012708203E55
:1015E000860087012708033E72248831A9268831A6
:1015F00081002000A70A0319A80A0030280206303B
:1016000003192702031CEE2A2008A3238831200097
:101610002108A323883120002208A3238831200039
:101620002308A323883120002408A3238831200025
:101630002508A32388315530A32388312000A70132
:10164000A8012708203ECC2788310630031927023D
:1016500003188E2B212B4708993A031D772B4E0830
:10166000553A031D772BFF30722488312000A600E5
:101670009930A32388312000A701A70AA8012608D2
:10168000013EF800003003180130F9002802031D64
:101690004B2B780827020318752B27080907090721
:1016A0003C3E72248831A323883120002708090793
:1016B00009073D3E72248831A32388312000270882
:1016C000090709073E3E72248831A3238831200090
:1016D0002708090709073F3E72248831A323883170
:1016E0002000A70A0319A80A3F2B55308C2B470866
:1016F000883A031D972B4E08553A031D972B00304F
:10170000BE238831A32388310130BE238831A3232F
:1017100088310230BE238831A323883120008E1205
:101720006430F000F101C624883120008E16A70134
:10173000A8012708473ECC27883108300319270223
:1017400003180800992BF00023009E1CA42B70089E
:101750009A009E180800A92BF700B0248831A03009
:101760008624883177088624883176088624883153
:10177000982688310530F000F101C62CF0008B135B
:10178000230091009201951315148B17130808007C
:1017900090316B2088310C108C10E2278831C624E0
:1017A000883120008E160C148C14C30143084F3E60
:1017B0008600043087018101C30A4302031CD62B33
:1017C0000930722488312000E00001307224883111
:1017D0002000DE00003072248831AA3A031DF42B69
:1017E0002000DF01DF0AF62B2000DF01FF3072242A
:1017F0008831FF3A031D002CFF30F601AC238831FD
:1018000020005F0803190C2CF030A3238831F1303D
:10181000A3238831FF30142C0C14F030A32388311B
:10182000F130A3238831FE30A323883102307224A3
:101830008831EF3A031D462C2000C6014608033EBE
:10184000722488312000C200C401C5010130440760
:1018500084009830453D850000084206031D372C62
:101860004608D43E8600870144088100412CC40A02
:101870000319C50A01304502003003194402031C54
:10188000262C0630C60A4602031C1E2C64002000CB
:101890005B0803194E2CDB01B02188315C08031969
:1018A000692CDC0122002108F03A031D5F2C21087D
:1018B000A323883122002208A32388312200230891
:1018C000A32388312000E2278831C62488312000F4
:1018D0008E165A0803196F2CDA0186278831FC24EA
:1018E0008831462CF200B0248831A030862488311B
:1018F000720886248831B0248831A130862488314A
:10190000E1248831F300982673080800F000F10103
:10191000F01F8D2C20000E168F2C20000E120000C0
:1019200020008E15000000000000000000002000D4
:101930008E1100000830F035F10A7102031C882C6A
:101940000000000020000E160000000020008E1590
:1019500000000000000020008E11000000000800C0
:1019600020000E16000020008E1500000000000070
:101970000000000020000E12000000000000000027
:10198000000020008E11000000000800F201F301A9
:1019900071087302031DCE2C700872020318080030
:1019A000F401F5016400F40A0319F50A0030750228
:1019B000963003197402031CD22CF20A0319F30A9D
:1019C000C82CF00121000E16F101000000000000FB
:1019D00020008E1500000000F03520000E1AF00ADD
:1019E000000020008E110830F10A7102031CE52C62
:1019F00021000E1270080800372788310038031DB7
:101A0000442D0530D7002B278831003A03190800F0
:101A10006E2788310038031D0800640021005A0831
:101A20002000CF0021005B082000D00021005C08CE
:101A30002000D10021005D082000D2002100A0007C
:101A4000200051082100A100200050082100A20020
:101A500020004F082100A30051258831003A0319C6
:101A60003D2D64001E208831003A03193A2DE827E5
:101A70000530D7002000D6010800640055278831C2
:101A8000003A03190800322D0B305702031C4F2D6A
:101A90000530CF01D001D101D201D7000800D70A0B
:101AA0000800D430E12688310038031D0034DA30D4
:101AB000DC2788316025883100380319013400346F
:101AC000AA000A309731782788312000AB002B0814
:101AD0000319702D2B1F6E2DF7309A2DFC30992D88
:101AE0000430F500F6019531D125883120002A080F
:101AF0002100B6007C08B7007B08F0000430F1013B
:101B0000F200B830F301C326883120000630BA272E
:101B1000E7000C30963112268831AB00AB08031D6C
:101B2000B02D0530973178278831073903199C2D5E
:101B3000F5302000AB00B02D20001430BA27E701AB
:101B4000963112268831AB00AB08031DB02D093049
:101B5000973178278831083903196E2D2000AB01A1
:101B60002B080800F401740809070907403E722495
:101B7000883120005206031DDB2D74080907090770
:101B8000413E7224883120005106031DDB2D74086C
:101B900009070907423E7224883120005006031DC0
:101BA000DB2D740809070907433E722488312000A1
:101BB0004F06031901342C30F40A74020318003460
:101BC000B32D8D30052688312000EF0089300526A1
:101BD00088312000EE008730052688312000EC0097
:101BE0008530052688312000ED008330ED13052671
:101BF00088312100E6008130052688312100E70088
:101C00008B3005262100E8000800F20020000E10AD
:101C10000000000020000E110000000020000E1443
:101C20000000000072086B2688319827F30020001E
:101C30000E100E1500000000730808008E30F2012F
:101C40005326883121006708F2008030F2135326B2
:101C5000883121006608F200823053268831200046
:101C60006D08F2003F30F2058430532688312000A1
:101C70006C08F20086305326883120006E08F2008E
:101C800088305326883120006F08F2008C305326AC
:101C9000883121006808F2008A305326883180306C
:101CA000F2008E30532EF30020000E1000000000D2
:101CB00020000E110000000020000E1400000000A3
:101CC00073086B26883172086B2620000E100E15E3
:101CD000000000000800F0000830F100701C752EB4
:101CE00020008E1400000000792E20008E100000CD
:101CF000000020000E110000000020000E15000062
:101D00000000F036F10B6E2E0800F300F401F20132
:101D1000F401700874020318962E74087307F1001A
:101D2000860087010108F207F40A892E720808006C
:101D300020000E12000020008E15000000000000A0
:101D40000000000020000E1600000000000000004F
:101D50000800F000F101F2010130710784009830B1
:101D6000723D850000087006031DB82E710808003A
:101D7000F10A0319F20A01307202003003197102EC
:101D800003180034AC2EF7007108F5007008F40059
:101D90007708F6000130F2020030F33B720A0319B3
:101DA000730A031908007608860087017408840006
:101DB0007508850000088100F40A0319F50AF60A7F
:101DC000CA2EFC00B630F0007C08FB266A30F50015
:101DD000F6019531D1258831F726883120000C3065
:101DE000BA27E700193096311226FB0008000930A7
:101DF000F501F50AB12FF300F601F501F401F60142
:101E000076087307F100860087010108F5000F309E
:101E1000F50576087307F10086000108F200720EDE
:101E20000F39F40076357007F100710A86007509E4
:101E3000890EF0397504810076357007F10086004F
:101E40007409890EF039740481000630F60A7602AE
:101E500003180800002FDA303227883100380319C0
:101E600001340034AA00FB0093309F31C12FDE30D3
:101E70002000AA0026304F278831DA30FD000030DC
:101E800047278831BE003E08031D0134003420007E
:101E9000BD00FB007D08FC0093309431842CAB0026
:101EA0002A08FB002B089031272837278831003873
:101EB000031D00342B278831003A03190034E03029
:101EC000E12688310038031D0034DA30DC27883100
:101ED0006025883100380319013400344F0821008F
:101EE0005A06031D00342000500821005B06031D24
:101EF00000342000510821005C06031D003420003E
:101F0000520821005D060319013400345F080319EB
:101F10008B2F01308C065D08031908000830E30A96
:101F20006302031C0800E301DD010D168D16080095
:101F3000F00121008E14F101F03620000E15000092
:101F4000000020000E110000000020008E18F01785
:101F50000830F10A7102031C9C2F21008E107008BA
:101F60000800F70097317827F6007504F20077082B
:101F70009731672FE401E501EA01E601E701E80195
:101F8000E901EB010800013E840098300318013E8E
:101F900085000008F6000800860087018101A70A75
:101FA0000319A80A0030280208002000A70A031914
:101FB000A80A013028020034FB006008090709075D
:101FC000FC0060348E12F430F0000130F1000800A3
:101FD000F12F8E126430F000F101C62420008E161D
:101FE000080020005608FF3E031C0800840008304B
:101FF00004020318080087310435EE3E8200080011
:10204E00FC006A30F500F6019531D1259031033050
:10205E00F20022309731672790310830F2000930B4
:10206E009731672790310730F2000F30973167278D
:10207E00903120008F31BA2790317C082100B600B4
:10208E0020001E30E701E70A963112269031FD003E
:10209E007D08031957287B0886008701810169286E
:1020AE006908103A03195E28F530FD006928A6303C
:1020BE00FD01F0000030F1000230F200F3017B0868
:1020CE008E31C3267D080800C1209031C520903185
:1020DE00AB209031CC2090318A209031D520903198
:1020EE00E62090318E209031A2209031A8209031A0
:1020FE00B22097311B2790310230FB206400200064
:10210E000D168D1608008E1220008E160800200067
:10211E000E100E158E1421000E100E118E1008309A
:10212E002000EF00EE00EC00ED002100E600E700DD
:10213E00E801E80A08008E110E1220008E150E1608
:10214E0008000B178B17080021000C108C102000B4
:10215E000C148C14080021009011101210139013FF
:10216E009012FF308F00220090111016901610174B
:10217E0090130800703021009900080023008C0194
:10218E00900128008C018D010800E0309700C030CE
:10219E0096004130980021001114080033302300BE
:1021AE009B009C0108309F0021000E138E172030DB
:1021BE0023009E0090309D002100911608002600FD
:1021CE000D1027000D1033302900930094010830B4
:1021DE00970026008D100D152030290096009030A6
:1021EE009500210094160800F500F2000730F20564
:1021FE0026309731672F2000A000A1012108223E32
:10220E008600870121082007F600063E840085011E
:10221E00000881000830A10A2102031C05292203AF
:10222E00031935292208023A031935292208043ADE
:10223E00031935292208083A031935292208103ABC
:10224E00031935292208203A031935292208403A64
:10225E00031935292208803A031D7729A308031D87
:10226E007729A408031D7729A508031D7729A60839
:10227E00031D7729A708031D7729A808031D7729B1
:10228E00A90803195C29772901308B31A32B023061
:10229E004C2904304C2908304C2911304C2912306D
:1022AE004C2914304C2918304C292208013A0319B4
:1022BE004B29033A03194E29063A031950290C3AB1
:1022CE0003195229183A03195429303A0319562979
:1022DE00603A03195829C03A03195A298731832FB6
:1022EE00A208031DD6292303031999292308023AAC
:1022FE00031999292308043A031999292308083A3E
:10230E00031999292308103A031999292308203A09
:10231E00031999292308403A031999292308803A69
:10232E00031DD629A408031DD629A508031DD629E9
:10233E00A608031DD629A708031DD629A808031D24
:10234E00D629A9080319BC29D62921304C292230B7
:10235E004C2924304C2928304C2931304C2932302C
:10236E004C2934304C2938304C292308013A0319B2
:10237E00AC29033A0319AE29063A0319B0290C3ACF
:10238E000319B229183A0319B429303A0319B62998
:10239E00603A0319B829C03A0319BA297529A20857
:1023AE00031D352AA308031D352A24030319FB290F
:1023BE002408023A0319FB292408043A0319FB29BD
:1023CE002408083A0319FB292408103A0319FB299B
:1023DE002408203A0319FB292408403A0319FB2943
:1023EE002408803A031D352AA508031D352AA608A0
:1023FE00031D352AA708031D352AA808031D352AF3
:10240E00A90803191B2A352A41304C2942304C2980
:10241E0044304C2948304C2951304C2952304C29EB
:10242E0054304C2958304C292408013A03190B2AF0
:10243E00033A03190D2A063A03190F2A0C3A031907
:10244E00112A183A0319132A303A0319152A603A39
:10245E000319172AC03A0319192A7529A208031D50
:10246E006A2AA308031D6A2AA408031D6A2A2503E3
:10247E0003195D2A2508023A03195D2A2508043A34
:10248E0003195D2A2508083A03195D2A2508103A12
:10249E0003195D2A2508203A03195D2A2508403ABA
:1024AE0003195D2A2508803A031D6A2AA608031D12
:1024BE006A2AA708031D6A2AA808031D6A2AA90802
:1024CE0080310319AD288031C92861304C29623022
:1024DE004C29F7019011F801F9016400F80A03196B
:1024EE00F90A40307902743003197802031C742AF9
:1024FE0022009015F801F9016400F80A0319F90A8F
:10250E0006307902723003197802031C832A2200E6
:10251E00901110129016101790131030F3002730F0
:10252E00F4001530F500F6010130E5239231F2008A
:10253E003F393F3A0319BB2A760875040130031957
:10254E00BC2AF3020F249231031D9B2A1030FB2369
:10255E0092319B2A64000130F3020F249231031D45
:10256E00BB2A1030FB2392310130E52392313F39E3
:10257E000319C52A76087504031DB12A7608750459
:10258E00031DCB2AE730F700F708031DE22A80303F
:10259E00F0000030CC239231220090130130E5235D
:1025AE009231F70077080319DF2AE630F700E22AA6
:1025BE000030F001CC2377080800540803190800F6
:1025CE005508031908005308031908000030E523C5
:1025DE009231F7008030F0000030CC23923103307E
:1025EE00E523923108390319C72B0630E5239231C2
:1025FE00F6000730E5239231FA007608FA0520003E
:10260E005408063E860087017A0881047A1C5B2BEB
:10261E000430E5239231403CF900032492315408F2
:10262E00033E840085010008F200F3017308F500F3
:10263E0001087202F400031CF5037508803A803C11
:10264E00031D2B2B74087902031C3E2B200054080B
:10265E00033E860087015408023E8400850100086F
:10266E000102F9000630F001F00ACC239231F80194
:10267E00790878020318562B20005408023E860073
:10268E00870101085507F20086000108F0000230AC
:10269E00CC23923103249231810AF80A3F2B073062
:1026AE00F001F00ACC2392317A1E782B1030F00014
:1026BE000730CC2392318230F0000630CC23923199
:1026CE0020005408860087010108933A031D782BD9
:1026DE000230F0002230CC2392310030F001CC23B6
:1026EE0092317A080E390319A12B0430E523923169
:1026FE00F900F8017908780203189A2B2000540883
:10270E00043E8600870101085307F200860002305E
:10271E00E5239231810020005408043E8600870193
:10272E00810AF80A812B7A08F0000A30F00507308A
:10273E00CC2392317A1DB92B2030F0000630CC23F9
:10274E0092312030F0000730CC239231FA12200063
:10275E005408063E8600043087018112F0000730CF
:10276E00CC239231FA1EF62A2030F0000730CC230B
:10277E0092312000540A8600FF3087018100F62A2C
:10278E0077088038F0000030CC2BF10022001016B4
:10279E0021008F0171080924901210127008200078
:1027AE008F002200101300000000000022001017FE
:1027BE0010169016FF3021008F000800F000220046
:1027CE00101621008F0170080924FF3021008F00A0
:1027DE00220090161012101320000F08F100220094
:1027EE001017101671080800F3002730F40001309E
:1027FE00F5020030F63B080020005408023E860029
:10280E008701080020008F00220090179013080007
:10281E000030F43B740873040800FC008E31F72678
:10282E0094310430F500F601D12594310730F200D1
:10283E00223067272000A0308F31BA279431210033
:10284E00B6007C08B70002302000E7001E301226CA
:10285E009431FD007D0A03194D2C6908043A0319C1
:10286E003A2CF530432C0F302100A605452CF630BE
:10287E00432CFD014D2CFA30FD004D2C2608003A5C
:10288E0003193E2C0A3A0319402C422CFD08031D55
:10289E0008008E31F72694310330F500F601D1256C
:1028AE0020008F31BA2794317B08F0001030F101EF
:1028BE00F200B630F3018E31C32694311030200071
:1028CE00E7001E3012269431FD007D0A0319802C7C
:1028DE006908043A031D802C0F302100A605782CC0
:1028EE00802C2608003A0319772C0A3A0319772C04
:1028FE00772CF501F50AF601D12DAE006A30BA013A
:10290E00BB01B301BC01B401F500F601D1257C0871
:10291E00F0000430F101F2003530F3018E31C326A0
:10292E0094312830F2001A30672794310830F500C0
:10293E000930872794312000B301A72D03308F3142
:10294E00BA279431F2002230672794317B08200099
:10295E00BB000730BB053B080319CC2C3B0EF039EE
:10296E003B04F2000F3067279431EB279431013E80
:10297E00B9003B08073A031DD32C9330E4003B0803
:10298E00F2000F3067279431D32C7B08AA00AA36A9
:10299E00AA36AA362A08B90020002E082100B60051
:1029AE00EB279431890EF0393B07203E2100B7000A
:1029BE002000BC0139083C020318EE2C3C08B83E3E
:1029CE00860087013C08353EFA279431E12C390800
:1029DE00023EE7001E3012269431BA003B08073A39
:1029EE00031D392DB201BC0168083C020318252DC8
:1029FE003C08A63E860087010108B1003C08A63EB1
:102A0E0086003C08A63E840085010008AA003C080A
:102A1E00073C890A132DAA35890B122D3208AB00FB
:102A2E003C08013E890A1C2DAB36890B1B2D2B0849
:102A3E002A0481003108B200BC0AFB2C6808E902A6
:102A4E006B080319392D6B08F2000630F301F207FB
:102A5E000318F30A0930F000F10191279431700840
:102A6E00073CEB073A080319402D3A08E83A031DD4
:102A7E00A72DAB017B08283CAA00031CAB036908F9
:102A8E00AC00AD012B082D06031D4F2D2A082C0678
:102A9E000319532DF5309E2DB4013B080319682DF3
:102AAE003908FF3E353E860087013908FF3E353E28
:102ABE008400850100082100260481002000B40155
:102ACE00B40ABC01AB013908043CAA00031CAB03D9
:102ADE002B08803A803C031D762D2A083C020318F1
:102AEE008A2D353020003C07AA0039082A07AB0092
:102AFE008600A63087013407AC003C082C07AD00D9
:102B0E00FA279431692D20003A08E83A0319A32DCB
:102B1E003608370638063506AF006808A53E86002B
:102B2E0087010108B0002F060319A02DF830BA0056
:102B3E00A72DB301B30AA72D3B086B02FB07BA0101
:102B4E00B30803193A080319A52CBA08031DB32DAF
:102B5E003530F0000030C22DBC013C087C07AA00C5
:102B6E008600043087018101BC0A3C02031CB42D8F
:102B7E000130F0009930F1000430F200F3017C08CE
:102B8E008E31C32694312030F5001A30872720006D
:102B9E003A0808007608003A0319032EFA2D07307A
:102BAE00F2002A30672794316A30F2002C30672FFA
:102BBE000730F2002A3067279431A030F2002C3013
:102BCE00672F0930F2002A3067279431A030F200C7
:102BDE002C30672F0930F2002A3067279431FF30EE
:102BEE00F2002C30672F0730F2002A30672794311D
:102BFE007508F2002C30672F7508013A0319D62D8F
:102C0E00033A0319DF2D013A0319E82D073A031988
:102C1E00F12DFA2D0800A5003F30A801A601A7014D
:102C2E00F2000630672794317F30F20007306727B5
:102C3E0094310130F20167278E31F72694316430DA
:102C4E002000D400B630D500A630D300EA01512EB4
:102C5E00A601A701772E1130A6001030452E0730A1
:102C6E00432E0530432E0430A600452E0F30782714
:102C7E009431F32794310630A6000430A700772E46
:102C8E000F3078279431F32794313D30432EE930BD
:102C9E00A800772E2508003A03192F2E013A0319A2
:102CAE00322E023A0319362E043A0319382E0C3AF4
:102CBE000319382E073A0319382E1E3A0319322EED
:102CCE00063A03193A2E023A03193D2E0F3A03190A
:102CDE00382E033A0319382E043A0319472E4E2E76
:102CEE00A808031D162F1030A616A716A000273011
:102CFE00A1001430A200A30126088038F20006308D
:102D0E006727943120002508F2000130672794319F
:102D1E0020005408063E8600870101082705031D82
:102D2E00B12E9231E422943120002308220403199B
:102D3E00B12E0130A0020030A13B21082004031D5A
:102D4E008F2E1030A0002730A1000130A2020030DB
:102D5E00A33B8F2E3F30F2000630672794317F3031
:102D6E00F200073067270430F50009308F31B127A4
:102D7E0094310130F2016727943120002308220498
:102D8E00031DCB2EE530CF2E540886008701413F20
:102D9E00A800A808031D152F0A30782794312000AB
:102DAE00A9001730A9050319FA2E291CE52E0B30A0
:102DBE00782794312000EB00E830E92EEB01A91CB6
:102DCE00EA2EFB30A800291DEE2EEB30A800291E9E
:102DDE00F62E8E31F7269431ED302000A800A91D75
:102DEE00FA2EFE30A80025081E3A031D162F0530B8
:102DFE00782794312000A4000730A4052408031975
:102E0E000F2F68080907090709072407F83E132F33
:102E1E006808090709070907E907162FEB01D4010E
:102E2E00D501D30128080800923170229431FC009C
:102E3E00FC08031D08008030F2001F306727943114
:102E4E00FD01CD30FD0A7D02031C282FC030F2009B
:102E5E001F3067279431FD016930FD0A7D02031C86
:102E6E00332F4030F5001F3087279431AD30F200FC
:102E7E001B3067279431FF30F2001C3067279431E6
:102E8E007330F2001930672794318130F2001E3012
:102E9E00672794310430F2002930672794310230CD
:102EAE00F2002B3067279431F501F50AF601D12592
:102EBE0094310330F2002D30672794310130D12F39
:102ECE00F400F300F336F336F33673088038F0006F
:102EDE0000309331CC2394317208F0007408933192
:102EEE00CC2BF300F200F236F236F236720880384E
:102EFE00F00000309331CC23943173089331E52BDD
:102F0E00F70078279431F6007509F2007608F2057D
:102F1E007708672FF501F11F9B2FF009F109F00AD1
:102F2E000319F10AF501F50AF31FA42FF209F309AB
:102F3E00F20A0319F30A0130F506F601F7017108DA
:102F4E0070040319C42FF401F40AF11BB12FF035EC
:102F5E00F10DAB2FF635F70D71087302031DB92F66
:102F6E0070087202031CC02F7008F2027108F33B46
:102F7E007614F136F00CF40BB12F75080319CC2F23
:102F8E00F609F709F60A0319F70A7708F100760829
:102F9E00F0000800F9000330F50011308727943156
:102FAE00790803190800FA01FB01FA0A0319FB0A52
:102FBE0004307B021A3003197A02031CDC2F033013
:102FCE00F50011308F31B12F7B082000AA00AA36F0
:102FDE00AA36AA362A080800890E0F39FF3A013E92
:102FEE002000E90008008400850100088100BC0A69
:102FFE0008000034FF34FD34F934F334EB34E1349B
:10300E00D534C734B734A53491347B346334493462
:10301E002D340F34FC34F834F234EA34E034D43442
:10302E00C634B634A43490347A34623448342C34F2
:10303E000E341034F734F134E934DF34D334C5347C
:10304E00B534A3348F347934613447342B340D3492
:10305E0011342E34F034E834DE34D234C434B43483
:10306E00A2348E347834603446342A340C3412341C
:10307E002F344A34E734DD34D134C334B334A1347D
:10308E008D3477345F34453429340B341334303473
:10309E004B346434DC34D034C234B234A0348C3487
:1030AE0076345E34443428340A34143431344C3497
:1030BE0065347C34CF34C134B1349F348B347534A1
:1030CE005D34433427340934153432344D34663488
:1030DE007D349234C034B0349E348A3474345C34CB
:1030EE00423426340834163433344E3467347E3446
:1030FE009334A634AF349D34893473345B34413405
:10310E0025340734173434344F3468347F349434D0
:10311E00A734B8349C34883472345A34403424344E
:10312E000634183435345034693480349534A83428
:10313E00B934C8348734713459343F3423340534A8
:10314E001934363451346A3481349634A934BA344D
:10315E00C934D634703458343E34223404341A34DC
:10316E00373452346B3482349734AA34BB34CA3475
:10317E00D734E23457343D34213403341B343834DD
:10318E0053346C3483349834AB34BC34CB34D834AD
:10319E00E334EC343C34203402341C3439345434AB
:1031AE006D3484349934AC34BD34CC34D934E434F5
:1031BE00ED34F4341F3401341D343A3455346E3446
:1031CE0085349A34AD34BE34CD34DA34E534EE344D
:1031DE00F534FA3400341E343B3456346F348634AE
:1031EE009B34AE34BF34CE34DB34E634EF34F634B5
:0E31FE00FB34FE34303430343034303400349E
:103F8200FC006A30F500F6019531D1259F310F30E2
:103F9200F2002230973167279F310830F50009304F
:103FA200973187279F3120008F31BA279F317C08B4
:103FB2002100B6007030B7007B08F0000430F10138
:103FC200F200B830F3018E31C3269F312100380848
:103FD20039063A063B06BC0007302000E7001E30D7
:103FE200963112269F31FD00FD08031DFE2F690840
:0E3FF200083A0319FE2FF530FD007D08080087
:020000040001F9
:04000E00FCDFFFFE16
:10E00000000003000100FF00FF00FF00FF00FF0011
:00000001FF
